:020000040800F2
:1000000000280020D5020008190300081903000881
:100010001903000819030008190300080000000074
:1000200000000000000000000000000019030008AC
:100030001903000800000000190300081903000854
:100040001903000819030008190300081903000820
:100050001903000819030008190300081903000810
:100060001903000819030008190300081903000800
:1000700019030008190300081903000819030008F0
:1000800019030008190300081903000819030008E0
:1000900019030008190300081903000819030008D0
:1000A00019030008190300081903000819030008C0
:1000B00019030008190300081903000819030008B0
:1000C00019030008190300081903000819030008A0
:1000D0001903000819030008190300081903000890
:1000E0001903000819030008190300081903000880
:1000F00019030008000000000000000000000000DC
:0C01000000000000000000005FF808F1A3
:10010C0080B400AF00BFBD4680BC704780B400AF68
:10011C00154A154B1B6843F4807313601249124B3C
:10012C009A68124B13408B600F4A0F4B1B6823F0DD
:10013C00885323F0011313600B4A0B4B1B6823F4F9
:10014C0080231360084A084B9B6823F47D0393605B
:10015C00054B0022DA60064B4FF000629A6000BF3C
:10016C00BD4680BC704700BF003802400CC0FF8801
:10017C0000ED00E080B487B000AF00237B6100236A
:10018C003B610023FB600023BB6000237B60484B7A
:10019C009B6803F00C037B617B690C2B63D801A279
:1001AC0052F823F0E50100087302000873020008FE
:1001BC0073020008050200087302000873020008AD
:1001CC00730200080D020008730200087302000895
:1001DC007302000815020008354B5B685B0B03F0DB
:1001EC0007037B607B6801334FF4004202FA03F390
:1001FC001A46304B1A6046E02E4B2F4A1A6042E0EA
:10020C002C4B2E4A1A603EE0294B9B6803F470136A
:10021C003B61274B9B6803F44003FB603B699B0CE1
:10022C00274AD35C3B61FB689B0D0133FB60204B81
:10023C009B6803F48033BB60BB68002B09D13B691E
:10024C001D4A02FB03F2FB68B2FBF3F3194A13607D
:10025C0019E03B69194A02FB03F2FB68B2FBF3F3AA
:10026C00144A13600FE0124B5B685B0B03F007033F
:10027C007B607B6801334FF4004202FA03F31A46A9
:10028C000C4B1A6000BF0A4B9B681B0903F00F0351
:10029C000C4AD35C7B61074B1A687B6922FA03F327
:1002AC00044A136000BF1C37BD4680BC704700BFBA
:1002BC0000380240000000200024F40000127A00F4
:1002CC001C03000828030008002103E00A4B5B58BC
:1002DC004350043109480A4B42189A42F6D3094A52
:1002EC0002E0002342F8043B074B9A42F9D3FFF794
:1002FC000DFFFFF705FF70474003000800000020CA
:10030C00040000200400002004000020FEE7000090
:10031C00030406080C101820300000000000000038
:10032C000000000001020304060708090000000099
:04033C0001020304B3
:0403400068FF1F0033
:04000005080002D518
:00000001FF
