:020000040800F2
:100000000028002099040008DD040008DD04000831
:10001000DD040008DD040008DD0400080000000025
:10002000000000000000000000000000DD040008E7
:10003000DD04000800000000DD040008DD04000805
:10004000DD040008DD040008DD040008DD0400080C
:10005000DD040008DD040008DD040008DD040008FC
:10006000DD040008DD040008DD040008DD040008EC
:10007000DD040008DD040008DD040008DD040008DC
:10008000DD040008DD040008DD040008DD040008CC
:10009000DD040008DD040008DD040008DD040008BC
:1000A000DD040008DD040008DD040008DD040008AC
:1000B000DD040008DD040008DD040008DD0400089C
:1000C000DD040008DD040008DD040008DD0400088C
:1000D000DD040008DD040008DD040008DD0400087C
:1000E000DD040008DD040008DD040008DD0400086C
:1000F000DD04000800000000000000000000000017
:0C01000000000000000000005FF808F1A3
:10010C008842F0B54FF0010433D301FB04F4B0FB8B
:10011C00F4F58D42F9D274B300270AE0002A0CBF23
:10012C005726372635441D7001379CB17346B0FBFA
:10013C00F4F504FB150003F1010EB4FBF1F40FB957
:10014C00002D0BDD092DE9DC302635441D700137FF
:10015C00002CEBD100238EF80030F0BD0CB19E4684
:10016C00E4E730351D7003F1010E00238EF80030EA
:10017C00F0BD0546D0E79E46ECE700BF2DE9F843FD
:10018C00DDF82090002B99F8003006460F460CBF86
:10019C004FF020084FF0300809F101050BB3002A8D
:1001AC0014DD294601E0024680B111F8014B501EC6
:1001BC00002CF8D1941E48B1013C41463046B8475A
:1001CC00631C002BF8DC99F8003043B1194630461B
:1001DC00B84715F8013B002BF8D1BDE8F883BDE812
:1001EC00F883002A01DCBDE8F883541EE4E700BF65
:1001FC0003685A1C02601970704700BF2DE9F04764
:10020C008146884615461F4686B003AE297839B11B
:10021C00252908D048460135C04729780029F7D14F
:10022C0006B0BDE8F0876978302943D04FF0000A5A
:10023C000235A1F13003DAB2092A4FF0000422D9B9
:10024C00632948D02DD973294BD038D9752952D16F
:10025C003868334600220A21FFF752FF0437009614
:10026C005346224641464846FFF788FFCEE7A1F1A8
:10027C0057030A2BE4DC15F8011B04EB840403EB95
:10028C004404A1F13003DAB2092AA1F16100F2D9D8
:10029C000528A1F14103EAD9052BD1D8A1F13703E7
:1002AC00E7E7252935D0582927D00029AED106B04B
:1002BC00BDE8F087A9784FF0010A0335B9E7642946
:1002CC00A4D138680437002826DB334600220A21E3
:1002DC00FFF716FFC3E73B1D397848461F46C0475A
:1002EC0094E73B6822460093414600234846043776
:1002FC00FFF744FF8AE7782988D1A1F15802B2FAB6
:10030C0082F23868520933461021FFF7F9FE0437A0
:10031C00A5E74846C04779E72D2340428DF80C30BD
:10032C000DF10D03D2E700BF014B19605860704707
:10033C00040000200FB410B582B004AC54F8042BA8
:10034C0005482346016840680194FFF757FF02B047
:10035C00BDE8104004B07047040000200EB410B586
:10036C0085B007AC54F8042B01902346064901A82C
:10037C000394FFF743FF0022019B1A7005B0BDE800
:10038C00104003B0704700BFFD01000830B40025D9
:10039C004FF000640D4B0E4A19680E4841F4807101
:1003AC00196099680A409A601A6822F0885222F003
:1003BC0001121A601A6822F480221A609A6822F4D8
:1003CC007D029A60DD60846030BC7047003802406A
:1003DC000CC0FF8800ED00E01E4B10B49B6803F0CE
:1003EC000C030C2B08D8DFE803F0070707071E07E0
:1003FC0007071B07070721004FF400431549164A4E
:10040C004968C1F3423101318B4012491348896864
:10041C0010BCC1F303110A44127BD3400360704734
:10042C000F4B0D4AF1E70F4B0B4AEEE709480A4A0E
:10043C00816883688468C1F38341505CE10354BFD5
:10044C0008490749C3F3815301FB00F10133B1FBA8
:10045C00F3F3DAE700380240E00400080000002063
:10046C0000127A000024F40008B505480A22054958
:10047C00FFF760FFBDE808400348FFF75BBF00BF14
:10048C00180500080405000820050008002103E0F9
:10049C000A4B5B584350043109480A4B42189A42A4
:1004AC00F6D3094A02E0002342F8043B074B9A4278
:1004BC00F9D3FFF76BFFFFF7D7FF7047280500084C
:1004CC000000002004000020040000200C0000208C
:0404DC00FEE7000037
:1004E000030406080C101820300000000000000073
:1004F00000000000010203040607080900000000D4
:1005000001020304617070732F74657374732F7527
:10051000746573742E63000025733A25642D3E00C4
:08052000646566656765000073
:0405280068FF1F0049
:040000050800049952
:00000001FF
