:020000040800F2
:1000000000280020792D0008BD2D0008BD2D000816
:10001000BD2D0008BD2D0008BD2D0008000000000A
:10002000000000000000000000000000BD2D0008DE
:10003000BD2D000800000000BD2D0008BD2D0008EA
:10004000BD2D0008BD2D0008BD2D0008BD2D0008E8
:10005000BD2D0008BD2D0008BD2D0008BD2D0008D8
:10006000BD2D0008BD2D0008BD2D0008BD2D0008C8
:10007000BD2D0008BD2D0008BD2D0008BD2D0008B8
:10008000BD2D0008BD2D0008BD2D0008BD2D0008A8
:10009000BD2D0008BD2D0008BD2D0008BD2D000898
:1000A000BD2D0008BD2D0008BD2D0008BD2D000888
:1000B000BD2D0008BD2D0008BD2D0008BD2D000878
:1000C000BD2D0008BD2D0008BD2D0008BD2D000868
:1000D000BD2D0008BD2D0008BD2D0008BD2D000858
:1000E000BD2D0008BD2D0008BD2D0008BD2D000848
:1000F000BD2D00080000000000000000000000000E
:0C01000000000000000000005FF808F1A3
:1001100000B58BB0684601F079F804980BB05DF833
:1001200004FB00BF5AB102780B789A4205D110F84F
:10013000012F11F8013F9A42F9D0002070470120A9
:10014000704700BF30B40B4D4AB96C880A46013481
:1001500001466C80084B094830BC00F09FBA2C88DF
:100160000A46013401462C80054B044830BC00F09F
:1001700095BA00BF84000020882E0008642E000875
:100180005C2E000838B50546064C204600F086FA7D
:100190002946054800F082FA2046BDE8384000F0C4
:1001A0007DBA00BF902E0008B82E000810B50C4C88
:1001B0000C48FFF7E7FF21880B4800F06FFA6188D1
:1001C0000A4800F06BFA638823B1BDE81040084884
:1001D00000F064BA0748BDE8104000F05FBA00BF05
:1001E00084000020BC2E0008D02E0008DC2E000861
:1001F000F82E0008E82E000800B50C4885B0FFF77F
:10020000C1FF0B4B01AC93E8070003C40A23228013
:10021000012101AA002000F011F80022054906483A
:10022000FFF790FF00231B7AFFDE00BF082F0008B6
:10023000C82D0008142F0008242F0008F8B510203E
:100240001D460F46164600F085FF044628462772D5
:10025000657200F07FFF0023E0606360236028B1D7
:100260002A46314600F08EFF0120F8BD20220849C1
:10027000084800F013FA084800F010FA074800F0A8
:100280003BFAE0682A46314600F07CFF0120F8BDC9
:10029000302F0008482F0008502F0008682F000852
:1002A00010B5044670B1E068C0B16268236802B15D
:1002B000136003B15A6000F059FF204600F056FF6A
:1002C000012010BD28220C490C4800F0E7F90C4829
:1002D00000F0E4F90B4800F00FFAE4E729220649A0
:1002E000064800F0DBF9064800F0D8F9054800F0B0
:1002F00003FAE068D9E700BF302F0008482F000854
:10030000782F0008682F000838B50D46044610B154
:10031000637A2B7038BD3E220649074800F0BEF9CB
:10032000064800F0BBF9064800F0E6F9637A2B7046
:1003300038BD00BF302F0008482F00088C2F000860
:10034000682F000810B5044670B1E36803B110BD12
:1003500045220B490B4800F0A1F90B4800F09EF92B
:100360000A4800F0C9F910BD44220549054800F0CB
:1003700095F9074800F092F9044800F0BDF9E4E768
:10038000302F0008482F0008A42F0008682F00080D
:100390008C2F000838B50D46044638B195B1236856
:1003A00025600BB15D6038BD2B6038BD4B220B4919
:1003B0000B4800F073F90B4800F070F90A4800F0A0
:1003C0009BF9EBE74C220549054800F067F907481F
:1003D00000F064F9044800F08FF9E0E7302F0008DE
:1003E000482F00088C2F0008682F0008C42F000831
:1003F00038B50D46044638B195B1636865600BB1F8
:100400001D6038BD6B6038BD5B220B490B4800F0A6
:1004100045F90B4800F042F90A4800F06DF9EBE7A6
:100420005C220549054800F039F9074800F036F923
:10043000044800F061F9E0E7302F0008482F000879
:100440008C2F0008682F0008E02F0008034610B525
:100450005B68002BFCD10468FFF722FF204624686C
:10046000002CF9D110BD00BF8842F0B54FF0010457
:1004700033D301FB04F4B0FBF4F58D42F9D274B32D
:1004800000270AE0002A0CBF5726372635441D7086
:1004900001379CB17346B0FBF4F504FB150003F182
:1004A000010EB4FBF1F40FB9002D0BDD092DE9DCD1
:1004B000302635441D700137002CEBD100238EF817
:1004C0000030F0BD0CB19E46E4E730351D7003F1FD
:1004D000010E00238EF80030F0BD0546D0E79E46A1
:1004E000ECE700BF2DE9F843DDF82090002B99F8E8
:1004F000003006460F460CBF4FF020084FF0300882
:1005000009F101050BB3002A14DD294601E002467A
:1005100080B111F8014B501E002CF8D1941E48B147
:10052000013C41463046B847631C002BF8DC99F883
:10053000003043B119463046B84715F8013B002B4F
:10054000F8D1BDE8F883BDE8F883002A01DCBDE8F6
:10055000F883541EE4E700BF03685A1C0260197058
:10056000704700BF2DE9F0478146884615461F4673
:1005700086B003AE297839B1252908D0484601351F
:10058000C04729780029F7D106B0BDE8F08769781F
:10059000302943D04FF0000A0235A1F13003DAB21E
:1005A000092A4FF0000422D9632948D02DD9732994
:1005B0004BD038D9752952D13868334600220A21E8
:1005C000FFF752FF043700965346224641464846FD
:1005D000FFF788FFCEE7A1F157030A2BE4DC15F8FB
:1005E000011B04EB840403EB4404A1F13003DAB2F1
:1005F000092AA1F16100F2D90528A1F14103EAD944
:10060000052BD1D8A1F13703E7E7252935D05829A3
:1006100027D00029AED106B0BDE8F087A9784FF009
:10062000010A0335B9E76429A4D1386804370028E2
:1006300026DB334600220A21FFF716FFC3E73B1DE6
:10064000397848461F46C04794E73B6822460093E6
:100650004146002348460437FFF744FF8AE77829DC
:1006600088D1A1F15802B2FA82F2386852093346B1
:100670001021FFF7F9FE0437A5E74846C04779E7A0
:100680002D2340428DF80C300DF10D03D2E700BF51
:10069000014B196058607047880000200FB410B5F6
:1006A00082B004AC54F8042B054823460168406826
:1006B0000194FFF757FF02B0BDE8104004B0704747
:1006C000880000200EB410B585B007AC54F8042B98
:1006D00001902346064901A80394FFF743FF002237
:1006E000019B1A7005B0BDE8104003B0704700BF11
:1006F00059050008704700BFFEE700BF00200C4B03
:100700000C4A196841F48071196099680A409A602E
:100710001A6822F0885222F001121A601A6822F434
:1007200080221A609A6822F47D029A60D86070472D
:10073000003802400CC0FF880022024B1A7018706B
:10074000704700BF02380240002382B00A4A01937A
:1007500002E0B3F5A04F08D0136813F4003F019BEB
:1007600003F101030193019BF3D0034B1868C0F31D
:10077000404002B0704700BF00380240014B187083
:10078000704700BF07380240034A536823F46043B0
:1007900018435060704700BF00380240014B18609A
:1007A000704700BF20004742034A536823F4F853C0
:1007B00043EA00205060704700380240014B186047
:1007C000704700BF000047420022024B1A701870A9
:1007D000704700BF35380240014B1860704700BFBA
:1007E000800647420243024B0A431A70704700BF1B
:1007F0000A380240014B1860704700BF6000474252
:10080000014B1860704700BF70004742014B1860F1
:10081000704700BFAC064742014B01431970704757
:100820000B380240034A936823F003031843906097
:10083000704700BF00380240024B986800F00C007F
:10084000704700BF00380240034A936823F0F0036A
:1008500018439060704700BF00380240034A936815
:1008600023F4E06318439060704700BF00380240F3
:10087000034A936823F4605343EAC00090607047D2
:1008800000380240284B10B49B6803F00C030C2B7B
:1008900008D8DFE803F0070707072E0707072A072E
:1008A000070732004FF400431F49204A4968C1F34B
:1008B000423101318B4003601B4CA168C1F303112D
:1008C0001144097BCB404360A168C1F3022111446C
:1008D000097B23FA01F18160A16810BCC1F3C22138
:1008E0000A44127BD340C3607047114B0F4A036028
:1008F000E2E7104B0D4A0360DEE70B4C0B4AA168A0
:10090000A368C1F38341515CA468C9B2E40354BF36
:10091000084C074CC3F3815304FB01F10133B1FBD5
:10092000F3F30360C8E700BF003802400000002076
:1009300000127A000024F40000F44032B2F5403F87
:1009400007D1084900F0C0400B6823F0C0431843AA
:100950000860044B596B21F440315963596B0A43C9
:100960005A63704700380240014B1860704700BF5F
:10097000D8064742014B1860704700BFDC0647426B
:10098000044AD36919B923EA0000D06170471843BB
:10099000D061704700380240044A136A19B923EA4B
:1009A0000000106270471843106270470038024020
:1009B000044A536A19B923EA000050627047184389
:1009C0005062704700380240044A136919B923EA9B
:1009D00000001061704718431061704700380240F2
:1009E000044A536919B923EA00005061704718435B
:1009F0005061704700380240044A936919B923EAEC
:100A000000009061704718439061704700380240C1
:100A1000044A936A19B923EA0000906270471843A8
:100A20009062704700380240044AD36A19B923EA39
:100A30000000D06270471843D0627047003802400F
:100A4000044A136B19B923EA000010637047184376
:100A50001063704700380240044A137819B923EA3A
:100A60000000107070471843107070470D38024036
:100A70004309012B054B00F01F000CBF1B685B6B8B
:100A800023FA00F000F00100704700BF0038024078
:100A9000024A536B43F0807353637047003802403F
:100AA000034BDB68184214BF01200020704700BFD1
:100AB00000380240014B1870704700BF0E380240EA
:100AC00008B5264B984218D0254B984221D0254B8B
:100AD00098422AD0244B984233D0244B984200D0DD
:100AE00008BD01214FF48010FFF786FFBDE80840E4
:100AF00000214FF48010FFF77FBF01214FF48040A9
:100B0000FFF76EFFBDE8084000214FF48040FFF77B
:100B100067BF01214FF40030FFF76EFFBDE80840CA
:100B200000214FF40030FFF767BF01214FF4802010
:100B3000FFF762FFBDE8084000214FF48020FFF777
:100B40005BBF01214FF40020FFF756FFBDE80840CE
:100B500000214FF40020FFF74FBF00BF00380140D5
:100B60000044004000480040004C0040005000405D
:100B700070B50D460446038ACA889BB223F44053DD
:100B800013438989038282892E89AB88688922F47C
:100B9000B052334322F00C0203431204120C9BB2F6
:100BA0001343A381A38A84B09BB223F440730B4305
:100BB0006846A382FFF766FE03991A48029BA28942
:100BC000844208BF0B4612F4004F2A6803EB8303EC
:100BD00014BF5200920003EB8303B3FBF2F36422D1
:100BE000114DA189A5FB0360400902FB10330A04E3
:100BF0004FEA00100AD41B013233A5FB0323C3F3D1
:100C0000431303439BB2238104B070BDD90032313A
:100C1000A5FB0131C1F3421242EA00039BB22381DA
:100C200004B070BD003801401F85EB5100234FF424
:100C300016510C22016042818380C380038183812D
:100C4000704700BF4A880B8810B48C881343C9884A
:100C5000028A23430B4392B29BB222F47062134385
:100C6000038210BC704700BF002303804380838051
:100C7000C3807047838929B923F400531B041B0CDC
:100C8000838170479BB243F400538381704700BF58
:100C9000038B03F47F430383038B9BB219430183CC
:100CA000704700BF838919B9C3F30E03838170476E
:100CB0006FEA43436FEA53439BB28381704700BF9F
:100CC000838A29B923F400631B041B0C83827047B9
:100CD0009BB243F400638382704700BFC1F30801F5
:100CE000818070478088C0F308007047038A23F032
:100CF0000F031B041B0C0382038A9BB2194301825E
:100D0000704700BF838929B923F002031B041B0C21
:100D1000838170479BB243F002038381704700BF19
:100D2000838923F400631B041B0C838183899BB29A
:100D300019438181704700BF038A23F020031B04FD
:100D40001B0C0382038A9BB219430182704700BFC8
:100D5000038A29B923F480431B041B0C03827047C8
:100D60009BB243F480430382704700BF83899BB2E8
:100D700043F0010383817047838A29B923F0080374
:100D80001B041B0C838270479BB243F008038382D1
:100D9000704700BF038BDBB20383038B9BB243EA34
:100DA00001210183704700BF838A29B923F0200302
:100DB0001B041B0C838270479BB243F02003838289
:100DC000704700BF838A29B923F010031B041B0C52
:100DD000838270479BB243F010038382704700BF49
:100DE000838A23F004031B041B0C8382838A9BB237
:100DF00019438182704700BF838A29B923F0020317
:100E00001B041B0C838270479BB243F00203838256
:100E1000704700BF838A9BB21AB923EA010181821D
:100E20007047194381827047012310B401F01F04F9
:100E3000C1F34211012903FA04F30FD002290CBFB8
:100E4000103014302AB9026810BC22EA0303036090
:100E50007047026810BC1343036070470C30F1E721
:100E60000388194214BF012000207047C94389B28A
:100E7000018070470123C1F3421210B4012A01F02E
:100E80001F0403FA04F315D0022A0CBF028A828AD7
:100E900092B21340028892B24BB10123090A03FABD
:100EA00001F10A4214BF1846002010BC70471846D2
:100EB00010BC7047828992B21340EBE70123090A04
:100EC0008B40DB439BB20380704700BF30B40025EA
:100ED0004FF000640D4B0E4A19680E4841F48071C2
:100EE000196099680A409A601A6822F0885222F0C4
:100EF00001121A601A6822F480221A609A6822F499
:100F00007D029A60DD60846030BC7047003802402A
:100F10000CC0FF8800ED00E01E4B10B49B6803F08E
:100F20000C030C2B08D8DFE803F0070707071E07A0
:100F300007071B07070721004FF400431549164A0E
:100F40004968C1F3423101318B4012491348896825
:100F500010BCC1F303110A44127BD34003607047F5
:100F60000F4B0D4AF1E70F4B0B4AEEE709480A4ACF
:100F7000816883688468C1F38341505CE10354BF96
:100F800008490749C3F3815301FB00F10133B1FB69
:100F9000F3F3DAE700380240D42D00081C000020EB
:100FA00000127A000024F400FEE700BF4FF0FF308B
:100FB000704700BF0C22024B4FF0FF301A607047A1
:100FC000C80000200B22024B4FF0FF301A60704720
:100FD000C80000204FF4005300204B60704700BF52
:100FE00001207047022804D90922034B00201A600F
:100FF00070470120704700BFC80000201622024B36
:101000004FF0FF301A607047C80000201F22024BCB
:101010004FF0FF301A607047C80000200020704772
:10102000F8B5B0B9002A174611DD0C460C4E8D18E4
:1010300020210B48FFF714FF0028F9D03046FFF7B6
:1010400051FE04F8010BAC42F2D13846F8BD074618
:10105000FBE70922034B4FF0FF371A60F5E700BFAB
:1010600000380140C80000204FF4005300204B60BE
:10107000704700BF4FF0FF30704700BF0222024BA5
:101080004FF0FF301A607047C80000200A22024B60
:101090004FF0FF301A607047C80000200128F8B5F3
:1010A0000C4615461AD0022812D1002A0EDD154F23
:1010B0008E1840211348FFF7D3FE0028F9D014F80A
:1010C000011B3846FFF70AFEA642F2D12846F8BDBA
:1010D00009220D4B4FF0FF301A60F8BD002AF5DDF4
:1010E000084F8E1840210748FFF7BAFE0028F9D0B4
:1010F00014F8011B3846FFF7F1FDB442F2D128463F
:10110000F8BD00BF00380140C80000200D4908B5F7
:101110000346086888B1EFF308820344934201D87C
:101120000B6008BD192208490220FFF7B7FF0C2207
:10113000064B4FF0FF301A6008BD054A10460A60A2
:10114000E9E700BF90000020FC2F0008C800002045
:10115000CC00002010B5044B0100186800F024F901
:1011600010BC02BC0847C0462000002010B5044B4C
:101170000100186800F092F810BC01BC0047C0469E
:1011800020000020F0B505000F2A2FD90B000343E3
:101190009B0736D116000C000300103E35090135BF
:1011A0002D01451927681F6067685F60A7689F6009
:1011B000E768DF60103310349D42F3D10F239E4364
:1011C0001036851989191340032B1CD91E1F0023C3
:1011D000B4080134A400CF58EF500433A342FAD12D
:1011E0000324A643331D2240C918ED18002A05D058
:1011F0000023CC5CEC5401339342FAD1F0BC02BC26
:1012000008470500F4E71A00F0E7C04610B50400EF
:10121000034B196800F094F8200010BC02BC08478A
:101220002000002010B5034B186800F021F910BC15
:1012300001BC00472000002010B5054B1B680A00C8
:101240000100180000F012F910BC02BC0847C046AB
:101250002000002070B504000D00002804D0836930
:10126000002B01D100F048FA2A000549E06800F09F
:101270007DFA200000F0FCF870BC01BC0047C046BD
:101280001830000810B5044B01001868FFF7E2FFA2
:1012900010BC01BC0047C0462000002070B50029EA
:1012A00020D004390B68002B26DB244B1A68002A57
:1012B0001FD08A4219D8002400E01A0053681D008C
:1012C0006E1EB5412600994266412E42F5D1156841
:1012D00054198C421DD019D808680C18A34225D087
:1012E0004B60516070BC01BC004708680C18A242FA
:1012F00004D04A601960F5E7C918D6E71468A44617
:101300005268604408604A601960EBE70C23036090
:10131000E8E709686D18511915608B42E2D1196828
:101320008C465B68654415605360DBE71C68A44627
:101330005B68604408604B605160D3E7C0000020E8
:1013400070B5164D2B6804000800002B23D0002137
:1013500000F0B6F8431C01D02A68801A104B1B68B5
:101360000022002B05D019688C465B686244002B74
:10137000F9D10C4B18601A62801A2200D86123CB75
:1013800023C223CB23C223CB23C21B6820001360BC
:1013900070BC02BC08470020E0E7C046C400002043
:1013A000C000002098000020032370B5CC1C9C4393
:1013B000083405000C2C00D20C24002C3DDB8C42A0
:1013C0003BD3294E316800290AD00B681A1B04D47C
:1013D0003BE01A68121B1AD519004B68002BF8D194
:1013E0007368002B39D02100280000F069F8431CF5
:1013F00023D00322C61C9643B04205D0311A2800E0
:1014000000F05EF8431C18D03460330004E00B2A6F
:101410000ED91A609B181C60180007210B301A1D8A
:101420008843821A01D05142995070BC02BC0847CF
:101430008B4206D05A684A60EEE70C2300202B60EE
:10144000F3E70A000B003260E6E70B2A03D84A688C
:101450000B003260E0E70B00DBE70021280000F022
:101460002FF87060BFE7C046C00000200020704722
:1014700030B58BB001006846FFF762FF0B4C0C4D96
:1014800023682A68D8680B4900F070F923682A6835
:10149000D868094900F06AF92368EA69D8680749F9
:1014A00000F064F90BB030BC01BC00472000002004
:1014B000980000203C3000085830000874300008C4
:1014C000002370B5074C050008002360FFF71EFEDF
:1014D000431C02D070BC02BC08472368002BF9D023
:1014E0002B60F7E7C80000200020704710B50349C3
:1014F00000F072F910BC01BC0047C0460924000886
:101500000020704770B568244A1E54430E00210025
:101510007431FFF749FF051E09D000232200036044
:1015200046600C30A8606832002100F07FF9280086
:1015300070BC02BC0847C046214B70B51D68AB6942
:101540000600002B2CD048356B68AC68013B03D5F6
:1015500021E06834013B1ED30C21625E002AF8D1E1
:101560000123002520005B42E3810233A3816566ED
:101570002560A560656025616561A561082200217F
:101580005C3000F053F96563A563A564E564200051
:1015900070BC02BC08472868002805D00500D3E7C6
:1015A000280000F00FF8CEE704213000FFF7AAFF73
:1015B00028600028F2D10C2300243360E7E7C046FE
:1015C000582E0008F0B54E46DE46574645463D4B80
:1015D000E0B5836200238364C36403653A4B1B68F0
:1015E00083B006000193984269D03000FFF7A4FF52
:1015F00070603000FFF7A0FFB0603000FFF79CFF85
:1016000075680024F060042328002C606C60AC60D6
:10161000AB816C66EC812C616C61AC6108220021AD
:101620005C3000F003F9294B9A466B62284B294F36
:101630009946AB62284B2F63EB622D62B5689846E2
:1016400009232800AB81083B2C606C60AC606C66A1
:10165000EB812C616C61AC61082200215C309B46FF
:1016600000F0E4F853466B624B46AB6243462F638F
:10167000EB622D62F56812232800AB81103BEB81F1
:101680002C606C60AC606C662C616C61AC61082293
:1016900000215C3000F0CAF853466B624B46AB62E7
:1016A0004346EB625B462D622F63B36103B03CBCE3
:1016B00090469946A246AB46F0BC01BC00470123C8
:1016C000836192E7ED140008582E0008E51F00081A
:1016D00015200008852000085520000810B5044B8F
:1016E0000449186800F078F810BC01BC0047C046F7
:1016F000582E000809240008836910B5002B01D179
:10170000FFF760FF10BC01BC0047C0467047C046F1
:101710007047C0467047C0467047C04610B5044B7E
:101720000449186800F034F810BC01BC0047C046FA
:10173000200000200115000810B5044B044918686A
:1017400000F026F810BC01BC0047C0462000002075
:10175000E91400080CB400B583B004AB04CB0193CA
:1017600000F0F4F803B008BC02B018470EB400B59E
:1017700082B003AB0100054804CB0068019300F080
:10178000E5F802B008BC03B01847C04620000020AE
:10179000F0B5C646483000B5884607000026002848
:1017A00014D07B68BC685D1E0DD4A389012B07D9BA
:1017B0000E22A35E013303D0200000F035F806436B
:1017C0006834013DF1D23F68002FEAD1300004BCFB
:1017D0009046F0BC02BC0847F8B54746CE4680B5F7
:1017E00007004837804689460026002F15D07B68C1
:1017F000BC685D1E0ED4A389012B08D90E22A35EFE
:10180000013304D02100404600F00FF8064368344D
:10181000013DF0D23F68002FE9D130000CBC90466A
:101820009946F8BC02BC084740474847F0B58307D3
:1018300047D0541E002A41D00D062D0E020003266B
:1018400002E01A00013C39D3531C15703342F8D121
:10185000032C2AD9FF220A40150215432A041543F6
:101860000F2C14D927001A00103F3E09013636010B
:101870009E19156055609560D56010329642F8D17A
:101880000F2297431037DB191440032C0DD91A008F
:10189000271FBE080136B6009E1920C2B242FCD1F5
:1018A000032297430437DB191440002C06D00906A5
:1018B0001C19090E197001339C42FBD1F0BC02BC0B
:1018C000084714000300C3E79368013B10B5936019
:1018D000002B08DB1368581C1060FF2019700840AB
:1018E00010BC02BC08479469A34203DB0B061B0E25
:1018F0000A2BEFD100F0CEFBF2E7C046F8B50600A8
:101900000D001400D718002B03D10CE00134BC42A9
:1019100009D021782A003000FFF7D6FF431CF5D10B
:10192000F8BC02BC08470020FAE7C046936810B52F
:101930001400002B04D10020536010BC02BC0847E7
:1019400000F0ACFD0023A3606360F6E7F0B5DE466F
:1019500057464E464546E0B59FB003908B4614006F
:101960000593002804D083690493002B00D104E17F
:101970008E4B9B4500D106E18D4B9B4500D10CE180
:101980008C4B9B4500D10CE15B469B891B0700D427
:10199000E9E05B461B69002B00D1E4E00023A04690
:1019A000012706AD6B6120336B761033AB76824E28
:1019B00043461B784446252B0CD0002B02D109E06E
:1019C000252B03D001342378002BF9D14346E31AA9
:1019D00099466AD12378002B74D001220023524209
:1019E0006A60443201342B60EB60AB60AB54AB6592
:1019F00006E03B00801B83402A6813432B600134C0
:101A000021780522300000F06BFF0028F1D12B680F
:101A1000DA0602D520214322A9541A0702D52B2128
:101A20004322A95421782A2900D177E00A00303ACC
:101A3000092A0BD8E868830001341B1821785B0061
:101A400098180A00303A092AF5D9E8602E294ED0B4
:101A50005A4B03221800984600F042FF002807D096
:101A60004346C01A402383402A6813432B60013445
:101A70002178631C062252489846297600F030FFF0
:101A8000002855D04F4B002B2AD005AB00935A4667
:101A90004D4B29000398AFF3008082465346013333
:101AA00010D06B6953446B6182E7424659460398F4
:101AB000FFF724FF431C05D06B694B446B6123780F
:101AC000002B8AD15B469B895B0653D468691FB0A3
:101AD0003CBC90469946A246AB46F0BC02BC0847C7
:101AE0000722059B0733934308330593D9E76178B1
:101AF000631C2A2926D00800002230386A601C00A6
:101B00000928A5D8930001349B1821785B001A1886
:101B1000080030380928F5D96A6099E7059A111D3F
:101B200012680591002A18DBEA60617801348DE7BC
:101B300005AB00935A46244B2900039800F0F6F8B1
:101B40008246ABE7059B191D1B68A21C05916B60C3
:101B5000002B1CDBA17814007AE75242EA600222D3
:101B600013432B60E1E75946039800F019FB002866
:101B700000D113E701204042A9E7FFF7BDFD0B4B61
:101B80009B4500D0F8E6039B5B689B46FCE601237F
:101B90005B42A1786B6014005AE7039B9B689B46ED
:101BA000F2E6039BDB689B46EEE6C046382E000853
:101BB000182E0008F82D0008943000089C3000080A
:101BC000A030000800000000FD18000810B5040057
:101BD0001300044A10680A002100FFF7B7FE10BC8A
:101BE00002BC084720000020F0B54F464646D646C6
:101BF000C0B51F00089B914698468A680B6906008D
:101C00000C00934200DA13004A4613604322A25CA0
:101C1000002A02D04A460133136023689A0666D52B
:101C20004B461B689A1C4B4606201A602368190015
:101C3000184208D1E1688A1A19218A460025A2446F
:101C40001900002A4ADC4323E35C5A1E93418A06AA
:101C50000AD53020E1184331087045215A1C615CD7
:101C6000A21843321170023322003900433230008F
:101C700000F0B6F9431C21D04B46E2681B68D31A2A
:101C80009946062322681340042B3BD14B46002B78
:101C900038DBA368226993423ADC4B46002B3AD0EA
:101CA0001A34002502E001354D4534D001232200CD
:101CB0003900300000F094F9431CF4D10120404277
:101CC0001CBC90469946A246F0BC02BC08474B4655
:101CD000E2681B680135D31AAB421EDD0123524670
:101CE0003900300000F07CF9431CF0D1E6E7062211
:101CF0001A4202D14A4612689CE74323E35C5A1E0B
:101D00009341B1E70021A36822698946934202DD2D
:101D10009B1A9944C4E70020D2E743232168E35C7F
:101D20005A1E93418A0694D49EE7C046F0B55746A2
:101D30009A4643239C464E464546DE468C446346BF
:101D4000E0B587B003930B7E914680460C00109A55
:101D50006E2B53D00FD8632B00D103E100D9DCE008
:101D6000002B57D0582B00D007E1452163549A49E6
:101D700023688B4613E0732B00D1E1E000D988E0A3
:101D80006F2B00D100E1702B00D0F6E02023096812
:101D90000B43236045217820605490498B461906F7
:101DA00000D5A9E0590600D4A6E01168081D10600E
:101DB0000D88DA0702D52022134323601027002D57
:101DC00003D1202322689A43226000224323E25455
:101DD0006368A360002B00DA96E004222168914337
:101DE0002160002D69D1002B00D08FE0039E082FC9
:101DF00000D174E0039B9B1B23610EE00B68190666
:101E000002D45B0600D5D3E01368191D1160626926
:101E10001B681A600023039E2361534605AA0093A2
:101E200021004B464046FFF7DFFE431C2ED02369BE
:101E300032004946404600F0D4F8431C26D02368BF
:101E4000E0689B070CD4059B984200DA180007B0A5
:101E50003CBC90469946A246AB46F0BC02BC084743
:101E6000059BC21A002AEFDD26000025193605E081
:101E7000E068059B0135C21AAA42E5DD0123320064
:101E80004946404600F0ADF8431CF1D101204042E4
:101E9000DDE7752B78D0782B6FD10B687AE743227A
:101EA0002D21A15462686D42A260002A29DB042220
:101EB00093432360484B0A279B46039E2800390022
:101EC00000F096FE5B465B5C013E280033703900F3
:101ED00000F010FE051EF1D1082F00D08AE723681C
:101EE000DB0700D486E763682269934200DD81E75F
:101EF0003023013E33707DE71168081D10600D68C6
:101F000057E7354B0A279B46002DD6D15B46260066
:101F10001A7842234236E25469E7642B01D0692BD8
:101F20002BD12368190601D4590648D41168081D1D
:101F300010600D68002DB2DB274B0A279B4647E750
:101F40001368191D11601E6862680021300000F0DE
:101F5000C7FC00283DD0801B606020610022432325
:101F6000E2545AE713680E00191D11601A684223E3
:101F7000E254413B42362361F0E742222600A3545B
:101F8000012342362361E9E72168080601D44906A6
:101F900009D41168081D10600D686F2B15D00E4B09
:101FA0000A279B4611E71168081D10600D88F4E7A9
:101FB0001368191D1160A28A1B681A802AE711682C
:101FC000081D106000228D5EB4E7034B08279B4676
:101FD000FBE66068C1E7C046A8300008BC300008D6
:101FE0004047504770B50C000E25495F00F038FDA2
:101FF000002805DB636D1B18636570BC02BC0847D5
:10200000A389024A1340A381F7E7C046FFEFFFFF11
:1020100000207047F8B516001F000C228B5E0500EB
:102020000C00DA0507D50E23C95E0022022300F05A
:10203000CFFB0C22A35E064A1340A38132000E237D
:10204000E15E28003B0000F095F8F8BC02BC0847B0
:10205000FFEFFFFF70B50C000E25495F00F0B8FBE5
:10206000431C08D08023A2895B011343A3816065D0
:1020700070BC02BC0847A389014A1340A381F7E75B
:10208000FFEFFFFF10B50E23C95E00F00FF910BC83
:1020900002BC0847F8B506000D001400002802D065
:1020A0008369002B43D0294B9C4245D0284B9C424E
:1020B00044D0284B9C4243D0A369A360A3891B074B
:1020C00024D52369002B21D0FF222F0661691540FA
:1020D00022683F0ED31A8B4220DA0133A1680139FE
:1020E000A160511C2160177062699A4204D00A2DC8
:1020F00008D1A389DB0705D52100300000F084F961
:1021000000281FD12800F8BC02BC0847210030007D
:1021100000F046F8002815D12369D5E721003000EA
:1021200000F072F900280DD122680123D6E7FFF7ED
:10213000E3FA064B9C42B9D17468BDE7B468BBE7CB
:10214000F468B9E701256D42DCE7C046382E000887
:10215000182E0008F82D000810B5054B1B680A0062
:1021600001001800FFF796FF10BC02BC0847C046EC
:102170002000002070B50500080011000022074C67
:1021800022601A00FEF78AFF431C02D070BC02BC1A
:1021900008472368002BF9D02B60F7E7C800002020
:1021A0003E4B70B51D6806000C00002D02D0AB69D7
:1021B000002B49D03A4B9C424CD03A4B9C4260D0C9
:1021C000394B9C425FD00C23E25E13041B0C1907B1
:1021D0000FD52169002918D0DA0724D50023A36080
:1021E00063695B42A3610020002924D070BC02BC5B
:1021F0000847D90649D55B072ED4216908231A431D
:10220000A2811204130C0029E6D1A02280209200A2
:1022100080001A408242DFD02100300000F018FB1D
:10222000A3892169D8E700229B0700D46269A260D4
:1022300000200029DAD10C22A35E1A06D6D540224E
:102240001343A3810138D1E72800FFF755FA144B57
:102250009C42B2D16C68B6E7616B00290AD02300BA
:102260004433994204D03000FFF718F80C23E25EA3
:102270000023636324239A43002321696360216060
:10228000BCE7AC689FE7EC689DE709233360402317
:1022900001201A43A2814042A8E7C0462000002046
:1022A000382E0008182E0008F82D0008002370B5FD
:1022B000074C050008002360FEF778FE431C02D09F
:1022C00070BC02BC08472368002BF9D02B60F7E7ED
:1022D000C8000020F0B5C64600B58B8980460D00C9
:1022E0001A0738D44A68002A6ADDEC6A002C2CD020
:1022F00042464146166800220A60DA0465D56A6DD6
:102300005B0706D56B68D21A6B6B002B01D02B6C68
:10231000D21A0023296A404600F0BEF8431C3CD084
:1023200000236B602B692B60AB89DB0446D44346EA
:10233000696B1E60002908D02B004433994202D0FB
:102340004046FEF7ABFF00236B63002004BC9046C1
:10235000F0BC02BC08470E69002EF6D00A680E6079
:10236000941B00229B0700D14A69AA60002C04DC60
:10237000EBE73618241A002CE7DD23003200296A27
:102380004046AF6A00F089F80028F2DC40220120C4
:10239000AB891343AB814042D8E7434619681D29F6
:1023A000F4D8184A0123CA409343EFD16B602B69DC
:1023B0002B60AB89DB04BAD50029B8D16865B6E7D4
:1023C0000A6C002A00DD90E7BFE700220123296A9A
:1023D000404600F061F80200431C02D0AB89EC6A71
:1023E0008EE743461B68002BF8D01D2B01D0162B1F
:1023F00003D1434600201E60A8E74021AB890B4370
:10240000AB81A3E7010040200B6970B505000C000B
:10241000002B11D0002802D08369002B15D0104B5F
:102420009C4217D00F4B9C4216D00F4B9C4215D0AC
:102430000C22A35E002B03D1002070BC02BC084715
:1024400021002800FFF746FFF7E7FFF755F9044B97
:102450009C42E7D16C68EBE7AC68E9E7EC68E7E73A
:10246000382E0008182E0008F82D000810B5011E9F
:1024700006D0064B1868FFF7C7FF10BC02BC084720
:10248000034B04491868FFF7A7F9F6E7200000207E
:10249000582E00080924000820473847F0B54E465A
:1024A000DE4657464546E0B5936883B000900C0081
:1024B0001600002B29D00C228B5E1B041A0C11076E
:1024C0002DD5216900292AD031688B46910735D551
:1024D000BB4B002700259846B146002D00D17EE079
:1024E0002B00454500D9B64B3A00216A0098A66AF0
:1024F00000F06CF9002800DC7EE04B469B683F183A
:102500002D1A181A4B469860E7D1002003B03CBC46
:1025100090469946A246AB46F0BC02BC0847210053
:102520000098FFF73DFE002800D03FE10C22A35E9B
:1025300031681B041A0C8B469107C9D4D20763D5A6
:102540000023994600204D469A461F00B1462EE0D2
:10255000002838D0B846AF4200D9A846A2689446B1
:1025600063699C4462462068019222694646824221
:1025700006D20122E04500DC0022120600D0EFE086
:10258000984500DA96E0A66A5246216A009800F063
:102590001DF9061E30DDBF1B0120002F26D04B4643
:1025A0009B68B244AD1B9E1B4B469E60ADD0002D78
:1025B000CED15B461B689A465B465D6808239C4605
:1025C000E344002DF5D02A000A21504600F088F996
:1025D000002800D1E8E053460130C71ABAE75B464D
:1025E0001F685D6808239C46E34476E72100009855
:1025F000FFF70AFF0028D2D00C22A35E4022012060
:102600001343A381404281E700229146B0464D46E4
:10261000002D26D080221B0C9200A668134229D0E0
:10262000B246B54252D39022D200134253D12F006A
:1026300020685246494600F095F9A3689E1B23681E
:102640005344A660236043469B68B944ED1BDF1BDF
:1026500043469F6000D158E70C22A35E1B04002D67
:10266000D8D15A46126891465A465568082294466F
:10267000E344CDE720682369984202D86769BD42E8
:1026800059D2AE4200D92E003200494600F06AF914
:10269000A36822689B1B9219A3602260002B01D0C3
:1026A0003700D0E721000098FFF7AEFE0028A3D145
:1026B0003700C8E74246514600F054F94246A36845
:1026C0009B1AA36023684344236064E72E002068BC
:1026D0002F00AA46ADE721692268521A9246626924
:1026E0005700BF18FA0FD7195246501C7F104019D7
:1026F0003A00B84201D9070002005B0542D511003B
:102700000098FEF751FE061E53D052462169FEF78F
:1027100039FDA3892B4A134080221343A381300043
:10272000534650446761FF1A2661A76020602E005F
:102730002F00AA467DE7244B28009D4200D91800AF
:10274000390000F065FA4A463B004343216A00988D
:10275000A66A00F03BF8002800DC4DE7070072E7AE
:10276000019E5146320000F0FDF8B44623686344F0
:10277000236021000098FFF747FE002800D03BE7C8
:10278000019E08E7009800F03FF9061EC7D1009DA2
:1027900021692800FEF782FD8022A38993431B0450
:1027A000743A1B142A6029E76F1CD3E601204042CB
:1027B000ACE60C23009A13600C22A35E1EE7C04611
:1027C00000FCFF7F7FFBFFFFFFFFFF7F3047C0461E
:1027D00070B50500080011000022074C22601A00A5
:1027E000FEF71CFC431C02D070BC02BC08472368E7
:1027F000002BF9D02B60F7E7C800002070B50C0063
:102800001E000E23C95E90B01500002916DB01AA38
:1028100000F03CF9002811DBF022029B1202134069
:102820000A4A944663445A42534133608023DB0092
:102830002B60002010B070BC02BC0847002333603E
:10284000A3891B06F2D540232B60F2E700E0FFFFCF
:1028500070B58B8982B005000C009B0709D5230059
:102860004733236023610123636102B070BC01BC64
:10287000004701AB6A46FFF7C1FF00990600280038
:10288000FEF792FD00281ED08022144BAB62A38974
:102890001343009A1B046261019A1B14A3812060F8
:1028A0002061002A02D13343A381DEE70E23E15EDB
:1028B000280000F001F900280DD00122A38913435C
:1028C0001B041B14EFE70C22A35E9A05CDD4022251
:1028D0001343A381C3E70C22A35EE4E7ED140008D1
:1028E00070B50E06350E830735D0541E002A1BD056
:1028F0000378AB4219D0032204E0013C14D30378DF
:10290000AB4212D001301042F7D1032C10D8002C6A
:102910000AD00378AB4208D0041902E00378AB4236
:1029200003D001308442F9D1002070BC02BC0847BA
:10293000FF23360C19400E43330408491E43036835
:10294000074A73409A189A430A42E2D1043C043081
:10295000032CF4D8DBE71400D7E7C04680808080E2
:10296000FFFEFEFEF0B588420CD98B18984209D2C2
:10297000531E002A03D0CA5CC254013BFBD2F0BCF8
:1029800002BC084705000F2A08D8002AF7D0002308
:10299000CC5CEC5401339342FAD1F0E70B000343D3
:1029A0009B072DD115000C000300103D2F090137A6
:1029B0003F01C71926681E6066685E60A6689E6053
:1029C000E668DE60103310349F42F3D10F24A54334
:1029D0001035491914404519032C13D90023271F1A
:1029E000BE080136B600CC58EC500433B342FAD1DD
:1029F0000326B7433C1D09192D193240C7D1BEE744
:102A00000500C4E72200C0E7F8B506000C00150079
:102A100000291FD0002A17D000F062F8854203D8A1
:102A20002000F8BC02BC084729003000FEF7BCFCBF
:102A3000071E0DD021002A00FEF7A4FB2100300064
:102A4000FEF72CFC3C00EBE7FEF728FC0024E7E750
:102A50000024E5E71100FEF7A7FC0400E0E7C0460C
:102A600070B50500080011000022074C22601A0012
:102A7000FEF7D6FA431C02D070BC02BC084723689C
:102A8000002BF9D02B60F7E7C8000020002370B5B9
:102A9000084C0500080011002360FEF79BFA431C58
:102AA00002D070BC02BC08472368002BF9D02B6011
:102AB000F7E7C046C8000020002370B5074C0500AA
:102AC00008002360FEF78EFA431C02D070BC02BCE3
:102AD00008472368002BF9D02B60F7E7C8000020D7
:102AE0000B1F1B68181F002B00DB70470B58C0180A
:102AF000FBE7C046012051E21EFF2F013600003ADD
:102B0000010050E12200009A020011E12300000AB6
:102B10000E0211E38111A0010830A0030130A013BF
:102B2000010251E3000051310112A0310332A03102
:102B3000FAFFFF3A020151E3000051318110A03148
:102B40008330A031FAFFFF3A0020A0E3010050E1FA
:102B50000100402003208221A10050E1A10040207B
:102B6000A3208221210150E1210140202321822143
:102B7000A10150E1A1014020A3218221000050E3E6
:102B80002332B0112112A011EFFFFF1A0200A0E1C1
:102B90001EFF2FE10100A0030000A0131EFF2FE184
:102BA000010851E32118A0211020A0230020A03308
:102BB000010C51E32114A02108208222100051E3CE
:102BC0002112A02104208222040051E303208282EA
:102BD000A12082903002A0E11EFF2FE11FFF2FE114
:102BE0000000A0E1000050E30000E013730000EAE1
:102BF000000051E3F8FFFF0A03402DE9BCFFFFEBA3
:102C00000640BDE8920003E0031041E01EFF2FE103
:102C1000000051E34300000A01C020E000106142BF
:102C2000012051E22700000A0030B0E1003060428C
:102C3000010053E12600009A020011E12800000A79
:102C40000E0211E38111A0010820A0030120A013AE
:102C5000010251E3030051310112A0310222A031DF
:102C6000FAFFFF3A020151E3030051318110A03114
:102C70008220A031FAFFFF3A0000A0E3010053E1F7
:102C80000130432002008021A10053E1A130432004
:102C9000A2008021210153E1213143202201802122
:102CA000A10153E1A1314320A2018021000053E39F
:102CB0002222B0112112A011EFFFFF1A00005CE3E5
:102CC000000060421EFF2FE100003CE10000604276
:102CD0001EFF2FE10000A033CC0FA00101008003F4
:102CE0001EFF2FE1010851E32118A0211020A0238D
:102CF0000020A033010C51E32114A02108208222DE
:102D0000100051E32112A02104208222040051E38B
:102D100003208282A120829000005CE33302A0E1C4
:102D2000000060421EFF2FE11FFF2FE10000A0E125
:102D3000000050E30201E0C30201A0B31F0000EA5B
:102D4000000051E3F7FFFF0A03402DE9B1FFFFEB5D
:102D50000640BDE8920003E0031041E01EFF2FE1B2
:102D60007047C04608B5FDF7C5FCFDF745FAFDF70D
:102D70001DFA002008BD00BF002103E00A4B5B588C
:102D80004350043109480A4B42189A42F6D3094A83
:102D900002E0002342F8043B074B9A42F9D3FEF7C6
:102DA00095F8FFF7DFFF7047D030000800000020E3
:102DB0008400002084000020CC000020FEE70000FA
:082DC00004F01FE5612D00087D
:102DC80000010203040506070809000003040608B9
:102DD8000C10182030000000000000000000000067
:102DE80001020304060708090000000001020304A9
:102DF80000000000000000000000000000000000CB
:102E080000000000000000000000000000000000BA
:102E180000000000000000000000000000000000AA
:102E2800000000000000000000000000000000009A
:102E3800000000000000000000000000000000008A
:102E4800000000000000000000000000000000007A
:102E58002400002050415353454400004D6F6475D1
:102E68006C653A2025732C204E616D653A202573D8
:102E78002C205374617475733A2025730000000088
:102E88004641494C454400002A2A2A2A2A2A2A2A45
:102E98002A2A2A2A2A2A2A2A2A2A2A2A2A2A2A2A8A
:102EA8002A2A2A2A2A2A2A2A2A2A2A2A2A2A0A00C4
:102EB80025730A00556E69742074657374207379DC
:102EC8006D6D6172790000005041535345443A20BA
:102ED80025640A004641494C44203A2025640A00EA
:102EE8005465737473205041535345440A000000DD
:102EF8005465737473204641494C454400000000F2
:102F08004672616D65207061727400004672616D71
:102F180065206372656174656400000046505F63F4
:102F280072656174650000006E77737461636B2F5E
:102F38007372632F6672616D65706172742E6300BF
:102F480025733A25642D3E004D656D6F72792061B9
:102F58006C6C6F636174696F6E206661696C730075
:102F6800417373657274206661696C7300000000B8
:102F780043616E742066726565204E554C4C207016
:102F880074720000496E636F7272656374204650F4
:102F980020706F696E74657200000000496E636F7F
:102FA80072726563742046502D3E706172745F645E
:102FB80061746120706F696E74657200496E636F29
:102FC8007272656374206E65787420465020706F45
:102FD800696E746572000000496E636F7272656392
:102FE80074206C61737420465020706F696E74652C
:102FF800720000004865617020616E64207374611E
:10300800636B20636F6C6C6973696F6E0A000000F4
:103018004D656D6F727920616C6C6F636174696F57
:103028006E20737461746973746963732025730AFD
:10303800000000006D61782073797374656D2062FB
:1030480079746573203D20253130750A0000000031
:1030580073797374656D20627974657320202020FC
:10306800203D20253130750A00000000696E20756A
:10307800736520627974657320202020203D202507
:103088003130750A0000000043000000232D302B6A
:1030980020000000686C4C006566674546470000E4
:1030A8003031323334353637383941424344454676
:1030B8000000000030313233343536373839616238
:0830C80063646566000000006E
:1030D000030406080C101820300000000000000057
:1030E00001020304010203040607080968FF1F0028
:1030F0002400002000000000382E0008182E0008D0
:10310000F82D000800000000000000000000000092
:1031100000000000903000080000000000000000E7
:10312000000000000000000000000000000000009F
:10313000000000000000000000000000000000008F
:10314000000000000000000000000000000000007F
:04315000000000007B
:0400000508002D7949
:00000001FF
